:1000000038240020A5210000A1210000A12100002A
:1000100000000000000000000000000000000000E0
:10002000000000000000000000000000A12100000E
:100030000000000000000000A1210000A12100003C
:10004000A1210000A1210000A1210000A1210000A8
:1000500041080000A1210000A1210000490E00007C
:10006000590E0000690E0000790E0000890E000094
:10007000990E0000111E0000211E0000311E00001C
:10008000411E0000511E0000611E0000711E000094
:10009000811E0000D9060000A1210000A12100005E
:1000A000A121000010B5064C2378002B07D1054B89
:1000B000002B02D0044800E000BF0123237010BDD4
:1000C0004000002000000000C857000008B5084BA1
:1000D000002B03D00748084900E000BF0748036829
:1000E000002B00D108BD064B002BFBD09847F9E749
:1000F00000000000C857000044000020C85700005E
:100100000000000010B50020084B9847084CFA2169
:100110008900A047074B1860FA218900A047064BC9
:1001200018600522054B1A6010BDC046111B000067
:100130002D340000040000200000002010E000E04A
:1001400030B5084B1C68084A00258021490206E0AA
:10015000002C04D05460956013680B42FCD0013829
:10016000F6D230BD0400002010E000E00C4B1B680C
:10017000002B10D1EFF31083002B09D172B6BFF31F
:100180005F8F0022074B1A700132074B1A7002E092
:100190000022054B1A70024A13680133136070473E
:1001A0005C0000200800002060000020084B1A6856
:1001B000013A1A601B68002B09D1064B1B78002BF3
:1001C00005D00122044B1A70BFF35F8F62B67047EF
:1001D0005C0000206000002008000020F0B583B023
:1001E00001AC012565700027A77025700E20211C29
:1001F000064EB0478022D201054B9A612770657088
:100200000F20211CB04703B0F0BDC046B909000063
:100210000044004110B5002200230270427000210A
:100220004280017103760262C26182600373C0245E
:100230006401C481037443748374C37403752A24F2
:10024000035543758375063C0355C2840285C17509
:100250002B23C1540133C15410BDC046F0B55F46D5
:1002600056464D464446F0B499B00160CA4C236AE4
:1002700080256D022B4323620C780523E40700D50B
:1002800019E209781733890700D514E2537803710E
:10029000002B00D0FFE1C1490C6C043323430B64F5
:1002A000F9E1137D002B02D10133437701E00023F4
:1002B0004377161C8246BA4B1B681B041B0F019325
:1002C00003689B46137802AA13701720111CB54BC4
:1002D00098471720B44B98472C23F35C002B43D04E
:1002E0002B22B55C327B91465219D2B2D318DBB2C5
:1002F00098469A4222D2AD4F331C4E4699460F245F
:100300002C404B461B7BE41804A8A9495022B8474F
:10031000132C0CD8A40004ABE05803A900234B70A5
:10032000CB708B7001330B70C0B2A24B9847013574
:10033000EDB27319DBB24345E1D34E46F48904A80C
:100340009B495022994B9847132C37D8A40004ABF3
:10035000E05803A900234B70CB708B7001330B70F6
:10036000C0B2944B984729E0347B04A890495022AE
:100370008E4B9847132C0CD8A40004ABE05803A96B
:1003800000234B70CB708B7001330B70C0B2894B64
:100390009847F48904A886495022844B9847132C27
:1003A0000CD8A40004ABE05803A900234B70CB7019
:1003B0008B7001330B70C0B27E4B9847737D9B00EE
:1003C000DBB25A461370B37DDB0172781343DBB2A4
:1003D0005A4653703379342B00D95AE19B00764A40
:1003E000D3589F4604211020022228E0727C317CE1
:1003F000102024E0019B022B1AD906211020012293
:100400001DE0019B022B17D908211020002216E0C5
:1004100000213020002212E00021202000220EE0E6
:100420000021002000220AE002211020012206E023
:1004300006211020032202E00821102004221201CC
:10044000702313400B435A469370F27D17233F2AC3
:1004500000D930E15B46DA7053461A68537E5BB2CE
:10046000002BFBDBF27C738813432422B25CD200A6
:100470001343327D92001343B27C52001343034373
:100480005A469380327E002A20D0102863D002D8AA
:1004900000283FD01AE020281BD0302816D1F37C4A
:1004A000002B0AD0F16980311723FF2900D902E11E
:1004B000316A8031FF2900D9FDE01723F169FF2956
:1004C00000DDF8E0316AFF2900DDF4E053461968E9
:1004D0007AE0F37C002B12D0F36980208000844600
:1004E0006344191C17233548814200D9E3E0336A7D
:1004F0006344191C17233148814200D9DBE01723DC
:100500002E49F069884200DDD5E0306A884200DD7E
:10051000D1E0DBE7F37C002B12D0F36980200001EF
:1005200084466344191C17232548814200D9C2E040
:10053000336A6344191C17232148814200D9BAE069
:1005400017231F49F069884200DDB4E0306A884211
:1005500000DDB0E0BAE7F37C002B12D0F369802015
:10056000000284466344191C17231648814200D9AF
:10057000A1E0336A6344191C17231248814200D951
:1005800099E017230F49F069884200DD93E0306A53
:10059000884200DD8FE099E7000400400008004039
:1005A00018200041291C00009D1B0000C5540000BC
:1005B000F0550000211D00001C550000FF03000045
:1005C000FF0F0000FFFF00004B7E5BB2002BFBDB48
:1005D0005B461A7253461A68537E5BB2002BFBDBF4
:1005E000B38B5A46938353461A68537E5BB2002BF3
:1005F000FBDB338C5A4613842C23F25C002A04D094
:10060000013AD2B2153B0F2A55D82B23F15C143B8B
:100610000F2950D853461868437E5BB2002BFBDB92
:10062000F089337B0343B06803430905194312047F
:100630000A435B461A612A23F35C5A4613750F235B
:1006400093751533F35C002B11D0F28C17231E49E0
:100650008A4230D85B469A84318D80231B01CA18A8
:1006600092B217231848824225D85B46D984174B8B
:1006700019684901E023DB001940154B5A68500105
:100680001A68D30E0343DBB20B435A46138500238B
:1006900011E017230FE000238360C36003618376BA
:1006A000C376038303770B4B18602A23D35C002B9C
:1006B00000D1F6E5FBE5181C19B03CBC9046994604
:1006C000A246AB46F0BDC046FF0F0000246080008C
:1006D000206080007401002038B52D4B1C68236811
:1006E0001D7EEDB2EA0735D5E27ED20732D5A27E75
:1006F000D2072FD501221A762268537E5BB2002BD7
:10070000FBDB61698B1C6361538B9BB20B80238B7A
:10071000013B9BB22383002B11D0637F002B19D0A8
:100720002268537E5BB2002BFBDB117B02230B4361
:1007300013732268537E5BB2002BFBDB0AE0237F3E
:10074000052B07D100232377013322689375201CE2
:10075000A36898476B070BD5042322681376E37EC2
:100760009B0705D5A37E9B0702D5201CE36898470D
:10077000AB070BD5022322681376E37E5B0705D512
:10078000A37E5B0702D52369201C984738BDC0466D
:1007900074010020931C9B001950012393401A1CE4
:1007A000837E1A438276704710B5041C038B9BB27C
:1007B0000520002B1DD1237FD8B2052819D0052391
:1007C000237722836161043B2268D375637F002015
:1007D000002B0ED02268537E5BB2002BFBDB117B1B
:1007E00002230B4313732268537E5BB2002BFBDBA7
:1007F000002010BD1723002A0DD18B00074A9B58FB
:10080000002B03D189008850002304E0834201D0EB
:100810001D2300E00023181C7047C0467C01002007
:100820001723002907D100221F2800D8034A0123DB
:100830008340D3600023181C7047C0460018004056
:1008400070B50022154B1A7000231F25144E134C4F
:100850001F2B19D90FE0002100E012490A619B000B
:100860009B59002B00D0984723780133DBB22370CB
:100870000F2BEDD911E0291C194001228A400021DB
:1008800009691142E7D1EFE7291C194001228A408A
:10089000044909691142E0D1E6E770BD7801002002
:1008A0007C01002000180040044A117802230B4309
:1008B000137053785BB2002BFBDB704700180040CD
:1008C00000B583B0124A916940230B43936101A99B
:1008D00000230B7003200F4B984703200E4B9847C3
:1008E0000E4A117801230B43137053785BB2002B2F
:1008F000FBDB0B4B191C4031002204C38B42FCD1A3
:100900001022084B1A60084B984703B000BDC04640
:1009100000040040291C00009D1B0000001800403E
:100920007C01002000E100E0A90800000023036032
:10093000436001220272427283720233C3727047B3
:10094000F0B583B0051C0C1C01A900234B70CB70C3
:1009500023790B70237A8B702078154B98470026EB
:100960001F2D00D8134E07222A409200E07AA37A66
:10097000002B01D008231843EB089B00F31899695A
:1009800090400F279740B9430A1C02439A61637A4B
:10099000002B06D073690122AA40151C1D43756106
:1009A00004E073690122AA409343736103B0F0BD70
:1009B000211D00000018004000B583B001AB80226B
:1009C0001A700A785A704A789A708A78DA70191C04
:1009D000014B984703B000BD211D000010B5490828
:1009E000402481420CD30023091A01339BB2884270
:1009F000FAD9013B9BB24024FF2B01D8138000247D
:100A0000201C10BDF0B55F4656464D464446F0B436
:100A100089B01C1C12AB1B78061C5E4340258E421D
:100A200000D9C7E0251C07920C1C021C002D51D1D7
:100A3000181C00210023634DA8478346261C00276D
:100A40000023002402930394002200233F2020214E
:100A50008C461F390096019720246442041903D460
:100A60000D1CA540A84604E06446241A0D1CE54070
:100A7000A8460C1C8440A146141C1D1CA4185D41F2
:100A8000221C2B1C5E4647463E4203D00E1C2643CA
:100A9000321C2B1C019C9C4210D802D1009C944219
:100AA0000CD8009C019D121BAB414D46029E039F3A
:100AB00035433C1C46463443029503940138CBD25F
:100AC0000022012302980399121A8B41110C1B0476
:100AD00019436CE00021012D69D1610F0F1CE10069
:100AE0008846181C00210023364CA047041C0D1C0E
:100AF00000239C4620339B46012663460593B94656
:100B00006B461B7D069300239C46002000213F225C
:100B10000094019520235B42D31803D4341C9C40DD
:100B2000231C04E05B469B1A341CDC40231C371C4E
:100B30009740041C0D1C24184D41201C291C0290B8
:100B4000039144463C40A2464C462340544623432E
:100B500005D0029B039C1D1C3543281C211C019BB6
:100B60008B420AD802D1009B834206D8009B019C8D
:100B7000C01AA14163463B439C46013ACAD2009C3D
:100B8000019D62460599531ADB080F4A934208D922
:100B9000069A0132D2B206920A1C01320592082A44
:100BA000AED14025069A082A04D051031943079B69
:100BB00019800025281C09B03CBC90469946A246E5
:100BC000AB46F0BDAD370000FF1F000010B582B08E
:100BD000041C0E4B1B78002B01D000290DD001A95D
:100BE0000C700C200A4B98470C200A4B9847074B77
:100BF0005C7001221A70002006E0044B5B7883428F
:100C000001D01D2000E0002002B010BD64000020D3
:100C1000291C00009D1B0000444B984233D006D88D
:100C2000434B98420DD0434B98421BD06FE0424B50
:100C300098424AD0414B984258D0414B984266D195
:100C400032E0012906D0002963D0022906D0032909
:100C500006D001E03B4867E0002065E03A4863E0E9
:100C60003A4861E0012906D0002954D0022906D073
:100C7000032906D001E0364856E0002054E035480C
:100C800052E0354850E0012906D0002945D002291C
:100C900006D0032906D001E0304845E0002043E0BB
:100CA0002F4841E02F483FE0012906D0002936D0E7
:100CB000022906D0032906D001E02B4834E00020A9
:100CC00032E02A4830E02A482EE0012906D00029E7
:100CD00027D0022906D0032906D001E0254823E0C9
:100CE000002021E024481FE024481DE0012906D00F
:100CF000002918D0022906D0032906D001E0204897
:100D000012E0002010E01F480EE01F480CE0002019
:100D10000AE01E4808E0032006E01D4804E01D48E4
:100D200002E01D4800E01D487047C0460010004228
:100D300000080042000C004200180042001C004263
:100D40000014004203000500030006000300070032
:100D50000300010003001E0003001F000300090040
:100D600003000A0003000B0003001100030012003F
:100D70000300130003000D0003000E0003000F002A
:100D8000030017000300180003001900030004000B
:100D9000030008000300100003000C00030016000D
:100DA00030B587B00C4B6A4632CB32C232CB32C23E
:100DB000009B834206D001239A0069465258824222
:100DC00003D100E00023D8B203E00133062BF3D1B6
:100DD000002007B030BDC046405600007047C046F6
:100DE000F0B50A4B1B78002B0CD1094F094E0A4D68
:100DF0000024DE515A1914600433182BF9D1012252
:100E0000024B1A708000024BC150F0BD66000020FA
:100E100068000020DD0D0000BC01002010B582B08C
:100E2000041C684605490622054B9847201C054BC3
:100E300098476B46185602B010BDC0465856000081
:100E4000C5540000A10D000008B5024B1B6800202E
:100E5000984708BD6800002008B5024B5B68012078
:100E6000984708BD6800002008B5024B9B68022027
:100E7000984708BD6800002008B5024BDB680320D6
:100E8000984708BD6800002008B5024B1B69042084
:100E9000984708BD6800002008B5024B5B69052033
:100EA000984708BD68000020F0B58BB001600C6861
:100EB0001C23A40700D5D1E00C68173BE40700D53C
:100EC000CCE0161C0C1C051C081C664B9847664998
:100ED0000A6A871C0123BB4013430B6209A9202720
:100EE000F35D0B700D30C3B20193181C5F4B984734
:100EF00001985F4B9847F05D00215E4B984733782F
:100F0000012B03D122680B33134323603378002B6A
:100F100079D1226808331343236074E0002204ABC4
:100F20009A70736A0593B36A0693F36A0793336BF7
:100F300008930024E1B2A30005AA9858002802D122
:100F4000381C4D4B9847431C06D002AB1872000C5E
:100F5000C0B204A9494B98470134042CEAD1337834
:100F60006B71337CAB71B37CEB71002202ABDA8026
:100F70003378012B13D128683A4B98470D30C0B213
:100F80003F4B9847011C706902AB9A1D3D4B984737
:100F90001723002862D102AB06331B78BB7233786B
:100FA000002B0ED17269308B7969F37E1B04B47EFD
:100FB00023430B437B61337F002B04D04023184332
:100FC00001E000200022B36871680B43F1680B4315
:100FD0001343317C021C0A43717C002903D12A4946
:100FE0008978890701D580210B43B17C002902D083
:100FF000802189020A4339680B433B607B681A43AE
:101000007A6000232AE00023EB602B616B61AB6107
:10101000EB616B622B620024AB852B852E33EC5485
:101020000133EC540133EC542D3B2B722C712868A6
:101030000C4B9847071C1549154B9847BF00154B9B
:10104000FD502F6804AB80221A705C707F3A9A7052
:10105000DC703378002B00D160E762E7181C0BB01E
:10106000F0BDC046A10D000000040040291C000096
:101070009D1B0000CD0B0000190C0000211D00007D
:10108000451C0000DD09000000200041E1110000C6
:10109000E10D0000BC01002010B544791523012C9E
:1010A0006CD1002A5AD04B78002B46D003689B7B2A
:1010B000DB0710D40B78D9090022002904D15A0982
:1010C000D2012F498C4662441F210B401E399940A2
:1010D0009161052352E00B78DC090022002C04D139
:1010E0005A09D201264CA44662441F2423401E3CC8
:1010F0009C4054618A780368997BC90700D51A839C
:10110000C2790023002A39D102680421937B0B4263
:10111000FCD0917B0023490730D5138A5B0703D5A8
:10112000118A04230B4313828379012B02D1138B81
:10113000002323E0138B002320E00B78D909002241
:10114000002904D15A09D2010D498C4662441F215D
:101150000B401E399940516100230FE00B78D909EB
:101160000022002904D15A09D20105498C46624463
:101170001F210B401E39994091610023181C10BD9E
:1011800000440041931C9B00C31859600123934005
:101190001A1C2E21435C1A434254704730B5172461
:1011A000002B1AD0C5790534002D16D01434045DF7
:1011B000E4B2052C11D083850385026241620522C9
:1011C0003023C2542E3B037203685A7342790024C1
:1011D000002A02D102329A735A73201C30BDC046D5
:1011E000F8B58000704BC45826682E23E35C2F228C
:1011F000A75C1F40B37B757B1D40EB0743D563792C
:10120000012B16D1237A002B0FD1684B1B88338317
:10121000638D013B9BB26385638D9BB2002B01D133
:10122000013333736379012B03D1237A002B05D16A
:1012300029E0002B27D1237A002B24D02068616A73
:101240000B78DAB24B1C6362A379012B01D093B205
:1012500004E04B781B02134302316162DB05DB0DB6
:101260000383A38D013B9BB2A385A38D9BB2002B6F
:1012700009D101333373237A012B04D1E379002B95
:1012800001D1023373736B0761D5338A5B0714D5C1
:10129000237A012B0BD01E223023E2542D3B2372E4
:1012A000023333733B0702D5201CA3699847338B65
:1012B000328A04231343338249E0237A012B16D167
:1012C00023681B8B638D013B9BB26385638D9BB24F
:1012D000002B3CD10433337300222C33E2542D3BDA
:1012E0002372FB0733D5201CE36898472FE023685F
:1012F0001B8BDB05DB0DDAB2216A0A70226A511CF6
:101300002162A179012904D11B0A5370236A013398
:101310002362238D013B9BB22385238D9BB2002B3F
:1013200015D100223033E2542C3B3373237A022B45
:1013300005D17B070BD5201C6369984707E0237A0A
:10134000002B04D1BB0702D5201C23699847AB07AB
:1013500028D56379002B10D107333373053BB37362
:10136000013323720023A385238530330022E25406
:10137000FB0602D5201CE36998476379012B11D144
:10138000237A012B0ED1E379002B0BD10233337377
:101390000133237200222D33E254FB0702D5E368A8
:1013A000201C9847F8BDC046BC010020D401002095
:1013B000F0B55F4656464D464446F0B48DB0051C28
:1013C0000C1C161C2960081C824B984722680523B8
:1013D000D20700D5F5E022681733920700D5F0E078
:1013E0007D490A6A871C1B3BBB4013430B620BA958
:1013F000737F0B700D30C7B2381C784B9847381C80
:10140000774B9847707F0021764B9847F37A6B7142
:10141000337DAB71737DEB712B689946181C6D4B56
:1014200098470D3000220E2302A98C4663441A808F
:1014300033689A46F3689B46B37D029372680392C1
:10144000002A14D080235B059A4230D1F37D002B13
:1014500031D133699846C0B2634B9847011C40466E
:101460000E2202AB9C466244604B984720E0F37D1D
:10147000002B0BD0102300933069B1690E2202AB10
:101480009C46624400235A4FB84711E0336998469E
:10149000C0B2554B9847011C1023009340460E22C2
:1014A00002AB9C4662440023514FB84700E0002045
:1014B000031E00D085E02A68138ADB0BDB039BB296
:1014C000002BF9D10E3302AA944663441B884A4686
:1014D00053815B4652461343039A1343029A5707BC
:1014E0001F43F37D002B01D104331F43737D1A0486
:1014F000337D5B041343F17A19433289FF2A03D009
:1015000080235B041F431143337F002B03D1394BEE
:101510009B789B0701D580231F432A68138ADB0B26
:10152000DB039BB2002BF9D14B4659602A68138A22
:10153000DB0BDB039BB2002BF9D14B461F600AABE0
:1015400080221A7000225A70DA709A70336A0693F9
:10155000736A0793B36A0893F36A029309930027A7
:101560000AAEF9B2BB0006AA9858002802D1201C86
:10157000214B9847431C05D03070000CC0B2311C81
:101580001E4B98470137042FEBD10023AB60EB6073
:101590002B61AB616B610022EB83AB832033EA5498
:1015A0000133EA540133EA540133EA542868094B01
:1015B0009847041C1249134B9847A400124BE5505E
:1015C0000023181C0DB03CBC90469946A246AB4681
:1015D000F0BDC046A10D000000040040291C000021
:1015E0009D1B0000CD0B0000451C0000DD09000024
:1015F000050A000000200041190C0000211D000018
:10160000DD160000E10D0000BC010020F8B5061C4D
:101610000C1C151C07680A4B9847F38B9BB2002BD8
:1016200003D0084B9847052009E0F583054B984700
:10163000B46105222323F254223B7B730020F8BDC2
:101640006D010000AD010000F8B5061C0C1C151C56
:1016500007680A4B9847B38B9BB2002B03D0084B0B
:101660009847052009E0B583054B9847746105222A
:101670002223F2541E3B7B730020F8BD6D01000055
:10168000AD010000931C9B001950012393401A1CCC
:101690002021435C1A4342547047C04610B51723BB
:1016A000002A06D0C4790533002C02D0024B98479B
:1016B000031C181C10BDC0460D16000010B51723E2
:1016C000002A06D084790533002C02D0024B9847BB
:1016D000031C181C10BDC04649160000F8B5800058
:1016E000494BC5582C68238ADB0BDB039BB2002BCC
:1016F000F9D1A37B667B1E402123EB5C2022AF5CEB
:101700001F40F30722D5EB8B9BB2002B1CD0AA699C
:101710001378DBB2511CA9616979012901D09BB210
:1017200004E0517809020B430232AA61DB05DB0DAC
:101730002383EB8B013B9BB2EB83002B06D1013360
:1017400023730133637301E001232373B30709D5C6
:101750000223237300222133EA54FB0702D5281CFD
:10176000AB68984773074ED5AB8B9BB2002B48D024
:10177000238ADBB25A0722D09A0707D51A222223DE
:10178000EA54228A203B1343238212E05A0707D5EA
:101790001E222223EA54228A1E3B1343238208E09E
:1017A000DB0706D513222223EA54228A213B134366
:1017B00023827B0727D52B69281C984723E0238B9E
:1017C000DB05DB0DDAB269690A706A69511C69616F
:1017D0006979012904D11B0A53706B6901336B616C
:1017E000AB8B013B9BB2AB83002B0CD10433237337
:1017F00000221E33EA54BB0705D5EB68281C984726
:1018000001E004232373F8BDBC01002008B50728BC
:1018100003D88000174B1B589F46002028E0164B2A
:10182000D86825E0154B186A8005800F144BC3401B
:10183000181C1DE0104B18691AE00F4B1B680220A2
:10184000184015D00D491022CB681A42FCD00A4B23
:101850001B685B070BD500200A4B9847064B9B681B
:101860001B041B0C584303E08020000200E00648E4
:1018700008BDC046605600008000002000080040FF
:1018800000127A00451C0000006CDC0270B50C4CA4
:10189000236A01788578427801200240920140262F
:1018A000B3431343021C2A40D2017F3083431343C6
:1018B00003220A40120203490B401343236270BD06
:1018C00000080040FFFCFFFF072803D880001E4BE4
:1018D0001B589F46172036E01C4A116A02230B430F
:1018E000136200202FE0194A916902230B43936190
:1018F000002028E0154A118A02230B43138200209E
:1019000021E0124A918A02230B43938200201AE0BD
:101910000F4B196802220A431A601A680D4B1340D4
:101920000A4A9384111C1022CB681A42FCD0084A40
:101930009168064BD96251689962126892B29A8492
:10194000002000E0002070478056000000080040A2
:10195000800000207FFF000030B585B0C222D20099
:101960001A4B9A601A4A53681E218B435360012315
:101970006A4613700024174DE0B26946A847013447
:101980001C2CF9D103A80024447001258570047033
:10199000114B98470620114B9847114B9847114B14
:1019A0001C725C729C72DC7201956B465C70062343
:1019B0006A46137014725472002069460A4B9847A5
:1019C00000200A4B984705B030BDC04600080040D3
:1019D00000400041291C00008D180000C9180000BB
:1019E000F119000000040040151A0000CD1A000093
:1019F000064A916908230B4393610122044B1A7034
:101A0000191C0B781342FCD17047C04600040040FB
:101A1000000C004070B5061C041C0D782D02054317
:101A20004B78002B02D08023DB021D434B7A002B26
:101A300002D080231B031D434868012818D9431E88
:101A4000184210D1022806D90223002201325B007D
:101A50009842FBD800E0002212023243141C80237B
:101A60005B031D4304E00402344380239B021D43B7
:101A70000B7A002B02D080239B031D430F4A53781F
:101A80005BB2002BFBDB0E4B98470E4B1E700B4AD4
:101A900053785BB2002BFBDB084B9C601A1C53781D
:101AA0005BB2002BFBDB054A516880235B020B40D5
:101AB0001D435560044B984770BDC046000C004064
:101AC0006D010000080C0040AD01000010B5041CC1
:101AD0000B4A53785BB2002BFBDB0A4B98470A4B4F
:101AE0001C70074A53785BB2002BFBDB044A536837
:101AF000802149020B435360044B984710BDC046F8
:101B0000000C00406D010000040C0040AD0100001D
:101B100070B5041C1A4A53785BB2002BFBDB194BDF
:101B20009847194B1C70164A53785BB2002BFBDBAD
:101B3000134E7068C004C00E144B9847051C124B1E
:101B40001C707668F602F60F114B1C700C4A537825
:101B50005BB2002BFBDB0A4B9C68240AA4B20D4B42
:101B60009847002E07D1012C07D9281C211C0A4BAD
:101B70009847051C01E00134E540281C70BDC046B3
:101B8000000C00406D010000040C00400D18000026
:101B9000080C0040AD0100002D34000010B5041CFD
:101BA000064B9847064B1C70064A51888023DB0180
:101BB0000B435380044B984710BDC0466D01000095
:101BC000020C0040000C0040AD01000010B5041CE8
:101BD0000F4B98470F4B1C700F4B5A881205100F74
:101BE00059880E4A0A405A8059880D4A0A405A803C
:101BF000191C8022D2014B881342FCD106490202F3
:101C00004888064B034013434B80064B984710BD52
:101C10006D010000020C0040000C0040FFF0FFFFCF
:101C2000FFBFFFFFAD01000010B50C782402044394
:101C3000024B9847A4B2024B5C8010BDCD1B000044
:101C4000000C004010B5041C064B9847064B1C7056
:101C5000064B5C882405240F054B9847201C054B38
:101C6000984710BD6D010000020C0040000C0040C0
:101C7000AD010000111B000030B5D378002B1ED140
:101C80001478802C04D0240680235B021C4300E0DF
:101C9000002453780225AB430AD19378002B03D15B
:101CA00080239B021C4302E0C023DB021C434160F3
:101CB0005378013B012B12D8184B1C400FE04160B8
:101CC0000B041B0CA024E405234383620B0CD024DB
:101CD000240623438362D378002B18D01CE00B0426
:101CE0001B0CA025ED052B43234383620B0CD02551
:101CF0002D062B4323438362D378002B0CD163033F
:101D000005D59378012B01D1816100E041615378C1
:101D1000013B012B00D8816030BDC046FFFFFBFFB7
:101D200008B5031C0A1CC1090020002904D1580968
:101D3000C00105498C4660441F210B401E39994063
:101D4000024B984708BDC04600440041791C000082
:101D50007047C04608B5054B9847054B9847054B5B
:101D60009847054B9847054B984708BD59190000FF
:101D7000DD010000511D0000C1080000511D0000E0
:101D8000931C9B001950022A04D1027E1023134396
:101D900003760CE0032A04D1027E2023134303764A
:101DA00005E0012393401A1C037E1A4302760020AB
:101DB0007047C04638B58000144BC5582B689C7BD3
:101DC0002B7E1C406B7E1C40E30705D5281CAB68AE
:101DD000984701232A689373A30705D5281CEB684D
:101DE000984702232A689373E30605D5281C2B69BC
:101DF000984710232A689373A30605D5281C6B699E
:101E000098472B6820229A7338BDC046D80100201D
:101E100008B50020014B984708BDC046B51D00001D
:101E200008B50120014B984708BDC046B51D00000C
:101E300008B50220014B984708BDC046B51D0000FB
:101E400008B50320014B984708BDC046B51D0000EA
:101E500008B50420014B984708BDC046B51D0000D9
:101E600008B50520014B984708BDC046B51D0000C8
:101E700008B50620014B984708BDC046B51D0000B7
:101E800008B50720014B984708BDC046B51D0000A6
:101E900030B589B00D4B6A4632CB32C232CB32C23A
:101EA00012CB12C2009B834206D001239A006946DE
:101EB0005258824203D100E00023D8B203E001333C
:101EC000082BF3D1002009B030BDC046A056000059
:101ED000F0B54F464646C0B489B0041C0E1C90466F
:101EE000081C924B98478146914D291C203106A829
:101EF0000822904FB847291C283102A81022B84761
:101F00000023A360E36023616361237663764B461D
:101F10009A00894BD450266043469B78082B04D105
:101F200017204A46D20700D5FAE0237133880520EE
:101F3000DB0700D5F4E0F37B1730DB0600D5EFE0DC
:101F400033889B0700D5EBE043461B7C002B0CD06D
:101F500001A901238B700022CA704246127E0A70CA
:101F60004B704346187D754B984743461B7F002BAB
:101F70000DD001A901238B700022CA704246526A1B
:101F80000A704B7043461B6AD8B26C4B98476C4939
:101F90000B6A4A46520002A8125A13430B62434688
:101FA0009B78082B06D10B6A4A4601325200125A1E
:101FB00013430B6243461B786A46137006AB4A46CE
:101FC0009D5C281C69465F4B9847281C5E4B9847D0
:101FD000434698881B890343424690799278104380
:101FE000184343465B78002B02D080231B01184323
:101FF00021687F22CB7B9343FCD130804346587BC2
:10200000431E9841800043469B7B002B01D0012357
:10201000184321687F22CB7B9343FCD1FF3333717C
:10202000002805D021687F22CB7B9343FCD17071BF
:102030004346987ADB7A002B01D01023184343469D
:102040001B7B002B01D02023184321687F22CB7BF0
:102050009343FCD1B07122687F21D37B8B43FCD1A9
:102060002379042B05D0082B41D01720002B57D102
:1020700024E07F21D37B8B43FCD128334246D35CC1
:10208000337421687F22CB7B9343FCD129334246B2
:10209000D35C337521687F22CB7B9343FCD12A33F9
:1020A0004246D35C337621687F22CB7B9343FCD1BD
:1020B0002B334246D35C7376002031E07F21D37B03
:1020C0008B43FCD143461B8D338221687F22CB7B1F
:1020D0009343FCD143465B8D338321687F22CB7BC6
:1020E0009343FCD143469B8D7383002018E07F21EE
:1020F000D37B8B43FCD143469B6A336121687F22AB
:10210000CB7B9343FCD14346DB6AB36121687F22DA
:10211000CB7B9343FCD143461B6BF3610020FFE76D
:1021200009B00CBC90469946F0BDC046911E000017
:10213000A0560000C5540000D8010020211D000059
:1021400000040040291C00009D1B000030B50468FD
:102150007F25E37BAB43FCD10379042B05D0082B0F
:1021600014D01720002B19D107E01720012915D80A
:10217000D2B261180A76002010E0172001290DD88C
:1021800092B20C3149000A53002007E017200129C0
:1021900004D8063189000A510020FFE730BDC0464F
:1021A000FEE7C04610B51D4B1D4A9A4203D01D4B99
:1021B0001A4A9A4204D31C4B1C4A9A4210D31EE07E
:1021C0001B4A184B03339B1A9B0801339B000022C8
:1021D000124813498C58845004329A42FAD1EAE7E3
:1021E000144A114B03339B1A9B0801339B000022B6
:1021F0000E4800211418216004329A42FAD10E4A86
:10220000FF210E4B8B4393600D4A516880230B4393
:1022100053600C4B98470C4B9847FEE7000000209A
:10222000C85700003C000020380400204000002077
:10223000040000204400002000ED00E00000000049
:102240000040004179540000DD33000010B5041C4B
:10225000074B98470138002808DD0023E25C215C29
:10226000E1542254013301388342F7DB10BDC046EC
:102270000F550000F8B55F4656464D464446F0B44B
:1022800083468A46C217851855400C1C0126761ACB
:10229000124B9946124B98463719281C0A21C847F9
:1022A00030312170281C0A21C047051C0134002848
:1022B000F2DC3B1C5A46002A03DA01372D22514634
:1022C000CA5400235246D3555046064B98473CBC4F
:1022D00090469946A246AB46F8BDC0461937000065
:1022E0004D3500004D2200000022014B1A7070474E
:1022F000B00000200122014B1A707047A500002099
:102300000122014B1A707047A60000208022D201E2
:102310000D4BDA610D4B9B6802229343012B12D1C6
:102320000B4A0C4B1A600C4B1A687F21D37B8B43F2
:10233000FCD1138802218B431380084B1970802233
:102340005203014B5A617047004400414C02002087
:102350004C0400000C000020FC0300207001002051
:102360008022D2010B4BDA6101220B4B1A70013231
:102370000A4B1A700A4B1A687F21D37B8B43FCD11E
:10238000138802218B43138080225203014B5A6130
:102390007047C04600440041E30000207001002067
:1023A000FC03002070B582B000226B46DA715F4BEF
:1023B0001B78002B0AD15E4A5E4B1A8001235E4ACD
:1023C000137000215D4A1170584A1370594B1B88D5
:1023D0005B4A934206D8584A1278002A02D000215C
:1023E000554A1170524A93420AD9544B1B78002B1C
:1023F00011D00122504B1A700022504B1A700AE083
:102400004E4A1278002A06D04E4A9268012A0ED00F
:102410000133484A1380484B1B78002B07D0494BA7
:102420009B68012B03D0434A1388013B1380464B22
:102430001B68444A12689B1ADA179B185340434A98
:102440001360434A934209DC3E4B9B68012B05D045
:1024500001223A4B1A700022374B1A70354B1A88FA
:1024600000213C4B98473C4B1B78002B04D0364A4C
:1024700013680133136003E0334A1368013B1360B0
:10248000324B1B68002B06DC2E4B9B68012B02D0C5
:1024900001226B46DA71314B1C685D68201C291CD7
:1024A00000222F4B2F4EB047002807D1201C291C9B
:1024B00000222D4B2D4CA047002802D001222C4B8E
:1024C0001A706B4607331B78DBB2294A1278002A50
:1024D00001D1002B27D0274B1A687F21D37B8B4358
:1024E000FCD1138802218B43138080225203224B9C
:1024F0005A61224B19700E4A0E4B1A8001220E4B64
:102500001A7000230D4A1370084A13706A46D3717B
:102510000C4B9B68022B06D1154B1B78002B02D16C
:102520000122174B1A7002B070BDC0461400002083
:102530001C2500001600002013000020710100205F
:10254000AF1D00004C0200200C000020AC00002059
:102550006B0700004D210000C8000020680100202A
:10256000004CCDC05D370000004CCD4085370000E9
:10257000E3000020FC030020004400417001002023
:102580004C010020F8B5264C012626610025257552
:10259000A66165754923A383201C1D3021490222B1
:1025A000214FB847214B23622423E654223BA362E8
:1025B0002333E6544336A685201C2D301C490222C5
:1025C000B8471C4B23633423E554313BA3633233B8
:1025D000E5541333A387201C3D3017490222B84726
:1025E000164B2364A5550423A3644133E554231CEF
:1025F0004C3350221A80201C4D3011494E3AB847B6
:10260000104B23655423E5544F3BA3655033E554E9
:102610000733E554201C5D3005490222B847F8BD58
:102620004C020020D8560000C5540000164A000095
:10263000DC5600004C040000E0560000C1280000F9
:10264000E45600000148000030B583B00023019338
:1026500001330193019B052B45DC019B1B01264A9D
:10266000D3181B7B834206D037E0019B1B01D31894
:102670001B7B834231D1019B1B011F4AD3181B7B5B
:10268000492B06D09368002B03D001221B4B1A70F4
:1026900029E0019B184C1B011B592360019B1B0166
:1026A000E3181B792371019B1B01E3189B68A3604E
:1026B000019B1B01E3185B7963710199201C0C30AD
:1026C000090161180C310E4DA8470199201C0D30ED
:1026D000090161180D31A84705E0019B0133019301
:1026E000019B052BC1DD019B062B02DD0122054B61
:1026F0001A7003B030BDC0464C020020A400002078
:10270000FF540000E200002008B5054A1378DBB250
:1027100004490B701078C0B2034B984708BDC046FF
:10272000AC020020A80000204926000000B58FB0B0
:1027300001AA0023137093700021938013815170BC
:102740009172D17211739173517311771362536245
:1027500013859385074B5385202393711F3B137477
:1027600015335361113B936103480449044B984767
:102770000FB000BD1C250000FC030020003000420B
:10278000D11E000010B50D4C201C0D4902220D4B2E
:10279000984720680C4B98470C4B1B5C1F2213403A
:1027A0001E3A9A40131C0A4A1360627E1023134398
:1027B0006376236810225A7310BDC046FC030020C4
:1027C000A5230000811D0000911E0000205700007D
:1027D00000E100E070B58CB08023DB05009300239E
:1027E0000193FF2269460A818B72CB7201220A751E
:1027F0004A758B75CB7506930B774B77E1235B029C
:10280000049380235B030393144B0893144B0993A5
:1028100001235B420A930B93124E134D134C301C51
:10282000291C6A46A0470028F9D10E4D2C68201CAF
:102830000F4B98471F2318401E3B8340181C0D4B1D
:1028400018602A68138ADB0BDB039BB2002BF9D1DB
:1028500022680233134323600CB070BD03002800CC
:1028600003002900F801002000180042B113000005
:102870001D0E000000E100E038B5084C201C08499E
:102880000022084DA847201C07490122A847212201
:10289000A15C03230B43A35438BDC046F8010020BC
:1028A000E9220000851600000927000010B5064C3B
:1028B000201C06490222064B98472F22A15C0423C4
:1028C0000B43A35410BDC046C4030020F5220000F2
:1028D00085110000F0B58FB0284C11232370002320
:1028E0006370A370012269464A708B700A701120D0
:1028F000234B98472378D9090022002904D15A098B
:10290000D20120498C4662441F2633400124211CF9
:102910009940916101AA147000235360936013746D
:10292000537494742021535407930893164B5361A6
:1029300080235B02D360154B536201235B42936299
:10294000134BD362134B1363134F381C1349144BAF
:1029500098473D68281C134B98470640B440124BDB
:102960001C603A68138ADB0BDB039BB2002BF9D1A6
:102970002A68023313432B600FB0F0BDF803002028
:10298000B909000000440041A086010002001000C7
:102990000200120002001300C4030020000C0042D9
:1029A000A90E00001D0E000000E100E038B5184C33
:1029B000201C184B984700232370C023DB00638042
:1029C000042363700433237318332371124D281CBE
:1029D0001249221C124B98472B685A7E52B2002A89
:1029E000FBDB19690F4A0A401A615A7E52B2002A6B
:1029F000FBDB802189030C4A1160197802220A430B
:102A00001A70054B1A68537E5BB2002BFBDB38BD96
:102A10001C020020150200001804002000400042A3
:102A20005D020000FFFF00FF00E100E010B5054C73
:102A3000201C05490022054B9847E27E01231343E1
:102A4000E37610BD18040020012300009507000064
:102A500030B583B001AC0023A37002336370013B37
:102A600023701420211C054DA8471520211CA847C0
:102A70002E20211CA84703B030BDC046B909000074
:102A800010B584B001AC201C084B98471C2301935F
:102A9000002363600133A37201332372E3720820C1
:102AA000211C034B984704B010BDC0462D090000FF
:102AB0004109000010B584B001AC201C084B9847B8
:102AC00024230193002363600133A3720133237233
:102AD000E3720420211C034B984704B010BDC0468C
:102AE0002D0900004109000038B5084808210022DE
:102AF000074DA84708200021064CA047064804219E
:102B00000022A84704200021A04738BD0D23000063
:102B1000F50700002108000061230000F8B55F46BA
:102B200056464D464446F0B4002A32D093468A4673
:102B3000814600241A4B9846261C4B461B191B78CD
:102B400042461370651C4B465B191B785370154841
:102B500015490022154B984712484146144A022352
:102B6000144FB847144A1378002BFCD00022124BA4
:102B70001A700C480C4901320C4B984756440C4BC8
:102B80001A78327055445B782B700234A4B2A34596
:102B9000D2D83CBC90469946A246AB46F8BDC0464A
:102BA00010000020C4030020F8030020991000004A
:102BB000E00000209D110000A5000020F0B5474670
:102BC00080B480460F1C224D802676036E610A2059
:102BD000204CA047AE610A20A0478026B603AE6114
:102BE0000A20A0476E610A20A0471B4B1F70002FD0
:102BF00004D08022D201194B9A6103E08022D201D5
:102C0000164B5A612820134B9847154C201C154928
:102C10001022154DA84723781448037062780123C9
:102C20001343437012490222A8474346002B09D0A0
:102C3000104B1A687F21D37B8B43FCD11188023360
:102C40000B4313800A20034B984704BC9046F0BD09
:102C50000044004141010000C800002080440041C0
:102C60002C000020580100201D2B00001000002027
:102C700094000020FC03002008B5074B1A78074891
:102C800002705B78437006490222064B9847802207
:102C90005203054B5A6108BD2C0000201000002093
:102CA000940000201D2B000000440041F8B5061CD4
:102CB0000D1C074FB847041C281CB847FF221440BE
:102CC00034190240201C291C024B9847F8BDC0460D
:102CD0000F550000D7540000002909D0031C01390A
:102CE00089B20131401800221A7001338342FBD1AE
:102CF0007047C046F0B5574680B482B04B089A463C
:102D000019D0041C5D1EADB201356D0045190022BD
:102D1000002300920193144F144E208880B2B847CC
:102D2000021C0B1C00980199B047009001910234DD
:102D3000AC42F2D103E000230024009301945046FA
:102D40000B4B9847021C0B1C00980199094CA0479B
:102D5000094A0A4B0A4CA04700220A4B0A4CA047DA
:102D600002B004BC9246F0BD61530000013800007F
:102D7000D9530000513E00008D33CE38E38C3340F0
:102D8000CD4600000088C340014C000038B5254BFB
:102D90001B78DBB2244A9468002C42D0002B40D12F
:102DA0000122204B1A70214B186859680022002319
:102DB0001F4DA847002805D01E4B186859681B4BAB
:102DC00018605960012C0BD01B4B1A68164B196800
:102DD000D00FCB1791424341DBB2184A137010E079
:102DE000174B1B6A1B0F012253401340134A1370E9
:102DF0001378002B02D00122124B1A700022124BC2
:102E00001A70094B5B79002B02D000220F4B1A700D
:102E10000A4B1978C9B201200D4B984701200D4B80
:102E2000984738BD700100204C020020500100205E
:102E300051370000680100200C000020C80000206D
:102E40000044004172010020E30000204C010020FA
:102E5000BD2B00004101000008B50F4B1B78012B72
:102E600018D10E4B9B68012B14D10D4B1A680D4BDA
:102E70009A420FDD0C4B1B78012B0BD100230B4A20
:102E800013700B4A1370012000210A4B984702224D
:102E9000054B1A7008BDC046700100204C0200208E
:102EA0000C000020A10C000072010020C8000020CE
:102EB00018000020BD2B000010B5174B1B78174AD7
:102EC0001278023B59424B41D2B29A4223D2144B60
:102ED0009B68012B02D00022124B1A70104B5B79B9
:102EE000002B02D000220D4B1A700F4C0F48211CF2
:102EF0000F4B98470023084A13700D3CA360012232
:102F00000C4B1A70802252030B4B5A610B4B9847A3
:102F10000A200B4B984710BD700100204C01002087
:102F20004C0200207201002059020020B002002053
:102F3000FF540000E500002000440041792C00000F
:102F40004101000010B5194C1948211C1022194BE1
:102F50009847E378DBB2E27B002A01D1FF2B0BD14B
:102F6000124BD87BC0B2144C211C144B9847201C28
:102F70001349144B984703E00F481349114B9847E6
:102F8000124B1B6ADB060FD4114B98470A4C201CCE
:102F90001421104B9847201C0F490A4B98470023D7
:102FA0000E4A13700E4A137010BDC04694000020E4
:102FB0001C0000201D2B0000B40000207522000022
:102FC000E8560000AD2C0000EC56000080440041A3
:102FD000792C0000D92C0000F0560000720100206E
:102FE0004C01002010B5094B1868094B9847002286
:102FF000084B094CA0470022084B094CA047094B3D
:1030000098470949094B984710BDC0460C0000205D
:103010006153000000007940513E00000000F83F7D
:10302000CD460000F5520000CC00002075220000C3
:1030300038B50F4B1A780F4B1B78DBB2022A16D12A
:10304000002B14D00C4C0523A3600C4A226522608F
:10305000A365201C0C30211C5C31094DA847201CA5
:103060000D30211C5D31A8470022014B1A7038BD7C
:10307000700100204C0100204C020020014800009B
:10308000FF54000008B5094B1A78094B1B789A4287
:103090000AD9084808490B22084B98470022034BDD
:1030A0001A700132024B1A7008BDC046120000208F
:1030B000E5000020B0020020F4560000C5540000D6
:1030C00010B5074B1B78002B08D1064C201C14218F
:1030D000054B9847201C0549054B984710BDC04635
:1030E000E5000020B0020020D92C000000570000AD
:1030F000AD2C000008B5094B1B78DBB2084A1278EA
:103100009A420AD2074808490622084B98470122EA
:10311000034B1A700022014B1A7008BDA400002056
:10312000E5000020B002002004570000C554000054
:1031300008B5094B1B78DBB2084A12789A420AD2CA
:10314000074808490722084B98470122034B1A7089
:103150000022014B1A7008BDE2000020E5000020AB
:10316000B00200200C570000C554000008B50B4BFE
:103170001B78013B5A425341DBB2094A1278934211
:103180000AD9084808490322084B98470122044BF2
:103190001A700022014B1A7008BDC046E4000020DE
:1031A000E5000020B002002014570000C5540000C4
:1031B00008B5054B9847054B9847054B9847054B75
:1031C0009847054B984708BDC1300000F530000016
:1031D000313100006D31000085300000F0B587B05E
:1031E0003D4B1B783D4A1278DBB2934269D901AC62
:1031F000002301930293039304932382384B98474F
:10320000384B9847384B9847201C1221374B98472A
:10321000374880214900374B9847374B1860596031
:10322000364B1B78012B06D100220023344CA047DB
:10323000314B18605960304C20686168314A324B1C
:10324000324DA84720606160314B984701AE311C78
:10325000304B98476B46581D311C11222E4B984716
:10326000232333702D4C201C6421204B9847201CB5
:103270002B492C4DA8472C4F201C391CA847201C3B
:10328000311CA847201C391CA847201C2749A847E7
:10329000201C391CA847201C2549A847201C25496B
:1032A000A847201C244B984701220C4B1A7082B26D
:1032B0002248211C224B98470023074A1370214AB9
:1032C0001370054B1B78002B04D11F48084980223E
:1032D0001E4B984707B0F0BDA6000020B0000020AC
:1032E000452F0000B1310000E52F0000D92C00006F
:1032F000C4020020F52C00006801002070010020AD
:10330000013800003333333333330140CD460000FE
:10331000F552000075220000D7540000E80000209C
:10332000B0020020AD2C000018570000CC00002097
:10333000B40000201C5700000F550000F8010020C9
:103340009D160000E500002018040020A9070000D9
:1033500008B5124B9847124B9847124B9847124B9F
:103360009847124B9847124B9847124B9847124B6D
:103370009847124B9847124B9847124B9847124B5D
:1033800098470122114B1A70BFF35F8F62B6104B42
:103390009847104B9847104B984708BD852500006B
:1033A000551D000005010000812A0000B52A00001B
:1033B000E92A0000AD2900002D2A0000D5270000D1
:1033C000792800002D270000852700000800002034
:1033D000D5280000AD280000512A000070B50A4B26
:1033E00098470A4D0A4C0B4E281C211C0122B0475D
:1033F000094B9847094B9847094B9847094B984701
:10340000094B9847F0E7C04651330000F80100200F
:10341000AC020020BD1600008D2D0000592E0000CA
:10342000B92E000031300000DD31000000224308D9
:103430008B4274D303098B425FD3030A8B4244D37C
:10344000030B8B4228D3030C8B420DD3FF220902BE
:1034500012BA030C8B4202D31212090265D0030B7D
:103460008B4219D300E0090AC30B8B4201D3CB0373
:10347000C01A5241830B8B4201D38B03C01A5241B5
:10348000430B8B4201D34B03C01A5241030B8B42B7
:1034900001D30B03C01A5241C30A8B4201D3CB02A2
:1034A000C01A5241830A8B4201D38B02C01A524187
:1034B000430A8B4201D34B02C01A5241030A8B428A
:1034C00001D30B02C01A5241CDD2C3098B4201D3A2
:1034D000CB01C01A524183098B4201D38B01C01A20
:1034E000524143098B4201D34B01C01A5241030997
:1034F0008B4201D30B01C01A5241C3088B4201D346
:10350000CB00C01A524183088B4201D38B00C01AF2
:10351000524143088B4201D34B00C01A5241411A19
:1035200000D20146524110467047FFE701B5002026
:1035300000F0FCF802BDC0460029F7D003B5FFF744
:1035400075FF0EBC4243891A1847C04603460B4319
:103550007FD4002243088B4274D303098B425FD38C
:10356000030A8B4244D3030B8B4228D3030C8B42B8
:103570000DD3FF22090212BA030C8B4202D312129E
:10358000090265D0030B8B4219D300E0090AC30B73
:103590008B4201D3CB03C01A5241830B8B4201D320
:1035A0008B03C01A5241430B8B4201D34B03C01A09
:1035B0005241030B8B4201D30B03C01A5241C30A81
:1035C0008B4201D3CB02C01A5241830A8B4201D3F2
:1035D0008B02C01A5241430A8B4201D34B02C01ADC
:1035E0005241030A8B4201D30B02C01A5241CDD281
:1035F000C3098B4201D3CB01C01A524183098B42CC
:1036000001D38B01C01A524143098B4201D34B01B4
:10361000C01A524103098B4201D30B01C01A524117
:10362000C3088B4201D3CB00C01A524183088B429E
:1036300001D38B00C01A524143088B4201D34B0087
:10364000C01A5241411A00D20146524110467047F9
:103650005DE0CA0F00D04942031000D340425340FE
:1036600000229C4603098B422DD3030A8B4212D3BE
:10367000FC22890112BA030A8B420CD389019211F0
:103680008B4208D3890192118B4204D389013AD02D
:10369000921100E08909C3098B4201D3CB01C01A02
:1036A000524183098B4201D38B01C01A5241430915
:1036B0008B4201D34B01C01A524103098B4201D303
:1036C0000B01C01A5241C3088B4201D3CB00C01A70
:1036D000524183088B4201D38B00C01A5241D9D288
:1036E00043088B4201D34B00C01A5241411A00D209
:1036F0000146634652415B10104601D34042002B05
:1037000000D54942704763465B1000D3404201B583
:10371000002000F00BF802BD0029F8D003B5FFF738
:1037200015FF0EBC4243891A1847C0467047C04671
:103730008446101C62468C46191C634600E0C04655
:103740001FB500F05DFF002801D40021C8421FBD55
:1037500010B500F0A1FE4042013010BD10B500F0E0
:103760004FFF002801DB002010BD012010BDC04626
:1037700010B500F045FF002801DD002010BD01203C
:1037800010BDC04610B500F0CBFE002801DC0020C3
:1037900010BD012010BDC04610B500F0C1FE0028CC
:1037A00001DA002010BD012010BDC046F0B54F4623
:1037B000464605042D0C2C1CC0B41704160C3F0CF7
:1037C0009946030C7C4375435F4373437D19260C74
:1037D000AD199C46AF4203D980235B029846C4448E
:1037E0004B465143434324042E0C240C2D046644C1
:1037F0002C1959188919201C0CBC90469946F0BD0B
:10380000F0B5454657464E4694464C000A03C90F4C
:10381000E0B488460E1C1903470FC500480A6146EC
:10382000490F01436046520A1743C0005A00640D15
:10383000520DDB0F8446984500D1A7E0A01A00285E
:1038400000DC01E1002A3DD163460B4300D0D4E007
:103850006B0700D188E00F232B40042B00D183E0BD
:103860002A1DAA42AD4180236D427F191B043B40B3
:103870004646151C002B00D17CE0CC4B01349C4209
:1038800000D1FDE03A1CCA4BED081A405007640510
:1038900052020543120B640D002112030B0D1B0590
:1038A0006405120B1A436308C24CF60714401C430C
:1038B000640064083443281C211C1CBC90469946B3
:1038C000A246F0BDB94B9C42C2D080231B041943D1
:1038D000382800DDECE01F2800DD21E120220E1C4D
:1038E0006346121A9640C340334366469640321CE4
:1038F000561EB24113430A1CC240EB1A9D42B64108
:103900001D1CBA1A7642971B3B0200D497E07A023C
:10391000560A002E00D1B6E0301C01F08FFD031CCA
:10392000083B1F2B00DDB7E09E40371C28262A1CD1
:10393000361AF240161C9D403E439C4200DDB2E028
:103940001C1B621C1F2A00DDD8E01F23291C1C1B26
:10395000331CA540A340D1406C1EA541D64019435D
:103960000D43371C002473E780231B043B4046466D
:1039700000D082E78D4BED0878070543FA089C429A
:1039800032D012036405120B640D85E7A31A002BD5
:1039900000DC94E0002A3CD0844A944200D157E7EE
:1039A000802212041143382B00DC05E163461943E1
:1039B000481E81410022C8B24019A8429B41051C03
:1039C000D2195B42D7183B0239D5784B01349C425F
:1039D00000D14CE10120764A6B083A402840184358
:1039E000D5070543570833E72B1C134348D08023E2
:1039F0001B031A431203120B4EE70138002878D13B
:103A00006346EE1AB5429B417A1A5B42D71A351CBF
:103A10007AE7021C0A4300D11AE7013B002B00D0D1
:103A2000F2E04019A8429B41CA195B42D718051C15
:103A3000C9E7131C334300D118E1171C351C464657
:103A40006B0700D007E795E700287AD1621C520582
:103A5000520D012A00DCFBE06246AA1A9542B641EB
:103A60009146781A7242861A320200D493E0624676
:103A7000551BAC458041CF1B40423E1A984648E753
:103A80000022002508E7281C01F0D8FC2030031C88
:103A9000083B1F2B00DC47E7283885402E1C0025FB
:103AA0009C4200DC4CE7424AE41A1640371CCFE641
:103AB000634619434B1E99410022CBB21DE7002BF0
:103AC00000D0F2E0601C43055B0D012B00DCA4E09C
:103AD000364B984200D121E163465C19AC429B41D0
:103AE000CF195B42FA186408D50725435708041C10
:103AF000AEE62E4B9C4200D0EAE6A9E6211C331C20
:103B00001F39CB40191C202A00D182E03F231C1B07
:103B1000A64035436E1EB54100270D4300248EE7B5
:103B2000031C0E1C203BDE40202874D040231B1AAF
:103B300099400B1C62461343591E8B4100223343AC
:103B4000DBE6002C50D0194CA24200D1A8E0802422
:103B5000240440422743382800DDD9E01F2800DD37
:103B600039E120243E1C241AA640B0462E1CA14652
:103B7000C640444626434C46A5406C1EA541C7405E
:103B800035436046451BCF1BAC45894149427F1AEE
:103B9000141C9846B8E64B464D46334300D0B8E671
:103BA0000026002700240025E4E6C046FF070000A9
:103BB000FFFF7FFFFFFF0F801F2B5BDC2022081C15
:103BC000D21A9040814660469246D8404A461043F9
:103BD0008146524660469040021C501E8241484633
:103BE00010430A1CDA40E7E63C1C2C4358D0C04383
:103BF000002851D16046451BAC458041CF1B404257
:103C00003F1A141C98467FE68F4A944200D0CAE6B9
:103C10001EE600267DE700238CE73B1C2B43002C8F
:103C200000D0BDE0002B00D1F5E063460B4300D18E
:103C30000EE663465B19AB428041CA194042171831
:103C40003A0200D4FCE0814A1D1C17400134FFE514
:103C50003A1C2A43002C51D1002A00D085E062464C
:103C60000A4303D00F1C65469846F1E5002600275D
:103C700000257FE6181C0A1C2038C240202B00D1EA
:103C8000A7E04020C01A8140081C63461843411E2B
:103C90008841104300228FE66B4CA24200D05AE7C5
:103CA0000F1C6546141C9846D2E5002C3AD1381CEE
:103CB000284371D0DB43002B18D0634882426BD07D
:103CC000382B00DD9DE01F2B00DDA7E020203C1CF1
:103CD000C01A8440A1462C1C8246DC40484604435E
:103CE00050468540681E8541DF4025436544654553
:103CF0009B417F185B42FF18141C64E6002A19D10F
:103D000062460A4377D00F1C654698464E4C9FE5A5
:103D10003D436F1EBD410027EDB232E7041C002772
:103D2000002527E64848824236D0802000045B42C6
:103D30000743C5E762460A4349D08024ED08780767
:103D4000FA0824032843224209D0CE08264206D18D
:103D500062464F07381CD20810439846321CD200E6
:103D6000470F1743C500384C72E562460A4300D13D
:103D70006EE56246AE1AB5429241781A5242821AF4
:103D8000100200D455E66246551BAC458041CA1B63
:103D90004042171A98465BE50F1C6546141C57E510
:103DA000002B34D063460B4311D08024ED087807F4
:103DB000FA08240328432242D1D0CB082342CED193
:103DC00062464F07381CD20810431A1CC7E71E4C26
:103DD0003EE5002059E7041C3E1C203CE640341C14
:103DE00020282BD04026301A87403D436F1EBD410E
:103DF00000272543C5E680270026FF03124C002537
:103E0000B8E53D436F1EBD410027EDB26EE70F1CC4
:103E100065460D4C1CE50F1C654619E51C1C381C3D
:103E2000203CE040041C202B0CD04020C31A9F40B3
:103E30003D436F1EBD410027254357E70027D4E7C8
:103E40001D1CFCE50027F3E7FF070000FFFF7FFFD5
:103E5000F0B55F4656464D464446F0B40F0387B072
:103E600098464D003B0BCC0F061C924681469B4664
:103E70006D0D01946BD0664B9D4235D080275B461B
:103E80007F031F43F3009946624BFF00400F9C469F
:103E900007430023BB4600266544009342461703B0
:103EA0005000D20F53463F0B400D904600D172E0B8
:103EB000574A904267D080235B031F435346554ABD
:103EC0005B0FFF001F43944653460021DB00604414
:103ED0004246624092462D1A0E430F2E00D9A1E0B1
:103EE0004D48B600805987465B461E4300D076E0B9
:103EF00000239B469946023308260093CEE7994655
:103F00004346BB4601930091009B022B6BD1019B62
:103F10009A46002153460122002789461A403C4B0D
:103F200000213F030C0D24053F0B27433B4C1B0591
:103F300027401F437F00D2077F0817434846391C9C
:103F400007B03CBC90469946A246AB46F0BD034341
:103F50003ED05B46002B00D19CE1584601F06EFA42
:103F60002823311C1B1A021C5F46D940083A97408F
:103F70000B1C96403B439B46B1460023284D002630
:103F80002D1A00938AE7524603213A43A0D1002715
:103F9000002302219CE752463A4315D0002F00D15E
:103FA00085E1381C01F04AFA021C28215046891A82
:103FB000131CC8405146083B99409F400B1C0743C7
:103FC00017480021801A83E70027002301217FE79B
:103FD00000239B4699460133042600935EE70323A2
:103FE0000C2600935AE7032B00D13CE2012B00D0B2
:103FF000BFE11A1C019B1A400021002300278946BB
:104000008EE700238027994600223F03004B87E775
:10401000FF07000001FCFFFF28570000FFFF0F8093
:104020000DFCFFFFBB4500D951E100D14CE14A46F0
:10403000039200225C469046013D180E3F02384331
:104040001B020193030C994603041B0C4946061CF2
:10405000201C1F1C0093FFF7E9F9021C7A43029011
:104060004946201C171CFFF767FA039B09041B0C29
:1040700019438F420CD9029B8919013B8E4200D90A
:1040800052E18F4200D84FE1029B8919023B029313
:10409000CC1B201C4946FFF7C9F9009F83464743C4
:1040A0004946201CFFF748FA039A0B041404240C19
:1040B00023439F420DD95A469B19013A9E4200D98B
:1040C00030E19F4200D82DE10222524294469B19D2
:1040D000E344029ADB1B17045A463A439346019C79
:1040E000170C220C101C04925A4611042204120CC4
:1040F000141C090C7C4305924A4341434743611811
:10410000100C09188C4203D9802040028446674471
:104110000C0C12040804120C3C198118A34200D2A2
:10412000E5E000D1DFE01F1B43465C1AA045924149
:104130005242BF1AB74200D10EE1381C4946FFF780
:1041400075F9009B029043434946381C9846FFF797
:10415000F3F9230C0F041F43B8450CD9029BBF1978
:10416000013BBE4200D9FBE0B84500D8F8E0029B15
:10417000BF19023B02934346FF1A4946381CFFF71A
:1041800055F9009B039043434946381C9846FFF776
:10419000D3F924040904240C214388450CD9039B3A
:1041A0008919013B8E4200D9DCE0884500D8D9E06E
:1041B000039B8919023B03934346C91A029B039A46
:1041C0001B04059C1A43100C13049146221C049FE7
:1041D0001B0C5A4344437B437843E318170CDB1909
:1041E0009C4203D980246402A44660441C0C12043F
:1041F0001B04120C00199B18814200D296E000D1DA
:10420000FCE04A4601231A4391469B4BEB18002BD6
:1042100000DC99E04A4652070AD00F2249460A407C
:10422000042A05D0043149459241894652429344BB
:104230005A46D20106D55A46904B1A4080239346DF
:10424000DB00EB188E4A934200DD62E64A4659468F
:10425000D208490711435A4689465702514601225E
:104260005B053F0B5B0D0A405AE680205A4600036F
:10427000024208D0074206D107433F0399463F0B4D
:104280004246804B4CE65F4607433F033F0B221CF0
:104290007C4B45E601F0D2F8031C2030272800DCD7
:1042A0005EE6083B9E400023B346994665E65046CD
:1042B00001F0C4F8021C2032272A00DC75E65746BC
:1042C0000838874000237BE6994500D2AFE65A467E
:1042D000594654084A46C8075208024303924A46C0
:1042E000D2079046A9E60027884500D31CE7019F26
:1042F0005A46BC46E044B845BF417F42BF19FF184B
:10430000013ABE4206D2BC425FD800D19FE03F1BBB
:10431000934609E7B742FAD1019B4345F3D9371BCE
:10432000934601E79346D4E60293B1E64A468919DB
:10433000013A8E4218D99146814200D061E7019A34
:104340009A4200D05DE760E74F4F7F1B382F13DDA7
:10435000012253461A404FE601235B42994654E737
:10436000029308E7039327E788423CD874D091462C
:1043700047E7019B9A4648E71F2F44DC434B4A46D8
:104380009C465B466544FA40AB4013434A46AA400C
:10439000151C6A1E95415A46FA402B43171C5A07B2
:1043A00009D00F221A40042A05D01A1D9A429B41B7
:1043B0005B42FF18131C3A023ED5534601220021EE
:1043C0001A40002701238946AAE502235B429C4646
:1043D000019AE3449446E04490459B415B429B191B
:1043E000DF193F1BA0E6019F4A467C00BC42BF414B
:1043F0007F42BF19023AC91901949CE7002B95D15D
:10440000002201929BE75A46214B5B1BDA40202F8A
:1044100027D0204B9C465B466544AB4049460B4346
:10442000591E8B411343072200271A4007D00F2241
:1044300000271A40042AB8D17A077F023F0BDB0815
:1044400013439946012253461A40002368E541452B
:10445000BBD89346002767E6019C9C42C3D3914694
:104460006DE70023DAE780275B463F031F433F03E6
:104470003F0B019A034B53E5FF030000FFFFFFFED4
:10448000FE070000FF07000002FCFFFF1E04000003
:10449000E2FBFFFF3E040000F0B55F464D46444698
:1044A0005646F0B41F035C00DB0F99461B4B0E030E
:1044B0004D00C90F8446360B6D0D8B4690463F0B61
:1044C000640D9D420CD0154B9C4210D00123A54297
:1044D00014D0181C3CBC90469946A246AB46F0BD91
:1044E000311C01230143F4D10C4B9C42EED13A43E1
:1044F0000123002AEDD10123A542EAD1BE42E8D131
:10450000C445E6D1CB4506D0002DE2D13043031C93
:10451000581E8341DDE70023DBE7C046FF070000AC
:10452000F0B5574645464E46E0B40F034E00C90F5E
:104530008A4632491D035C0084463F0B760D904647
:104540002D0B640DDB0F8E420FD08C4239D0002E24
:1045500010D13843414241418946002C27D12A439A
:1045600025D1002000290ED108E0391C01432ED1AD
:10457000B44226D0002C0BD09A450DD05346594258
:1045800001231943081C1CBC90469946A246F0BD65
:104590002A43F3D09A45F1D1A642EFDC1ADA50460D
:1045A00041424841012341421943081CEBE74A4676
:1045B000002AE1D058425841012241421143081CCF
:1045C000E1E7291C114302D1002EC2D0D4E702201A
:1045D0004042D8E7AF42D1D809D00020AF42D2D272
:1045E000504641424841012340421843CBE7C4456D
:1045F000C4D80020C445F3D3C5E7C046FF07000078
:10460000F0B55F464D46444656468046F0B4061C1B
:104610000803000B84462C484C001F035D00C90FA3
:10462000640D8B4691463F0B6D0DDB0F844212D01B
:10463000854225D0002C14D161460E43704246417C
:10464000002D35D0002E21D058425841012143423F
:104650000B43181C0EE06146022031430AD1A542EB
:104660000ED0002D12D13A4310D15B46594201239E
:104670001943081C3CBC90469946A246AB46F0BD87
:10468000391C02201143F5D1002CD5D09B45ECD12B
:10469000AC42EADC05DBBC45E7D80FD00020BC45C6
:1046A000E8D2584641424841414201200843E1E7EF
:1046B0003A43C7D10020002EDCD1D6E7C845D4D874
:1046C0000020C845EDD3D5E7FF070000F0B55F46F1
:1046D00056464D464446F0B4051C061C080387B0F8
:1046E00099464F00030BCC0F92469B467F0D0194D9
:1046F00067D06C4B9F4236D080205B464003184306
:10470000C0006B0F1843684B83469C4600239846B5
:10471000EE00674400934B4649461D03C90F5B00FA
:1047200052462D0B5B0D894600D16EE05D498B42F0
:1047300064D080205C4940038C4600210543ED0095
:10474000500F0543D20063444846FF187B1C9A462D
:10475000009B604002900B430F2B00D9ACE0534804
:104760009B00C3589F465B461D4300D082E0082350
:10477000009300239B46023300269846CBE7029B1A
:1047800001934346022B59D1012400250026019BA9
:104790001C40444B00212D030A0D12052D0B15431F
:1047A000434A1B0515401D436D00E4076D08254372
:1047B000301C291C07B03CBC90469946A246AB462B
:1047C000F0BD2B434ED05B46002B00D185E158460F
:1047D00000F034FE021C2823291C9B1A161C584684
:1047E000D940083EB0400B1CB54003439B462E1CED
:1047F0000023304F0093BF1A98468CE75146294357
:104800002ED10025002202219EE75146294323D0C4
:10481000002D00D154E1281C00F010FE031C2821BB
:104820005046C91A1A1CC8405146083A9140954052
:104830000A1C05431F480021C31A85E7032B00D13A
:10484000C2E1012B00D06DE14446019B00251C40D4
:10485000E4B2002300269DE700250022012173E732
:10486000032171E70423009300239B4601330026B4
:10487000984650E70C230093093B98464BE7802568
:1048800000242D030026074B84E74B46AB46161C3D
:104890000193884675E7029BAB46161C0193884638
:1048A0006FE7C046FF07000001FCFFFF68570000EC
:1048B000FFFF0F800DFCFFFF330C3604360C9C46C7
:1048C000331C140C1204120C534398466346534392
:1048D0009946634663430193331C41466343090C85
:1048E0004B445B18994505D98020400281460199C7
:1048F00049440191190C039141460904090C1B0418
:104900005B1804932B0C9846331C2D04290C4B4345
:10491000604600934346654658435E43009B4D43C3
:104920001B0C9946AE194E448446B54203D98023E8
:104930005B029946CC44350C2B1C03986344844697
:104940000593009B36041B041B0CF3189C44604623
:10495000039058460504060C280C84465043351C29
:1049600081466046654344434846000C8346724393
:1049700014195C44A24203D98022520293465D443A
:10498000220CAD184A461204120C24044046A41806
:1049900062464A437143464360460096464670432A
:1049A0008046100C84468844E044414505D9802166
:1049B00049028C460099614400910198039984460C
:1049C000614499429B415B4299460598434684461F
:1049D0001204120C1B049B1863449C46AB46834292
:1049E0009B4140460A19CC44A2428941E344CC454C
:1049F000B6415C46000C8046494276425B426418F0
:104A0000334398448C428941AB459B4149425B42C8
:104A100019430D1C009B4544EE187602E50D2E430C
:104A2000B346049B56021E43731E9E415B46D20D45
:104A3000324366021643DB010AD501233340760870
:104A40001E435B46DB071E435B465B089B4657469F
:104A5000634BFB18002B5ADD720709D00F2232403E
:104A6000042A05D0321DB242B6417642B344161C28
:104A70005A46D20106D55A465A4B1A4080239346CD
:104A8000DB00FB18584A934234DD0124029B0025C9
:104A90001C400026554B7DE680205B460003034208
:104AA00008D0054206D105432D032D0B4C46161C9C
:104AB0004E4B6FE65D4605432D032D0B4B4B69E6D0
:104AC000504600F0BBFC031C2033272B00DCA6E67D
:104AD0005546083885400022ACE6281C00F0AEFCA4
:104AE000021C2032272A00DC75E6083885400026A3
:104AF000AB467DE65A46F608520716435A4601244D
:104B00005502029A5B052D0B5B0D144042E6384DB1
:104B1000ED1B382D0ADD0124029B00251C400026D8
:104B2000002337E6019B5746029391E71F2D25DCB2
:104B3000304B321C9C466744BE405B46BB40371C32
:104B4000EA407E1EB74113433B431E1C5B46EB40CD
:104B50001D1C730709D00F233340042B05D0331DD0
:104B6000B342B6417642AD191E1C2B0220D501245A
:104B7000029B00251C40002601230BE65A461E4BD3
:104B8000DB1BDA40131C202D1CD01C4A94465A46CD
:104B90006744BA40171C3E43721E96411E430723CA
:104BA0000025334007D00F2300253340042BD6D1F6
:104BB0006B076D022D0B0124F6081E43029B1C405F
:104BC0000023E7E50027E6E780255B4601242D0367
:104BD0001D43019B2D0323401C1C2D0B034BD9E5CA
:104BE000FF030000FFFFFFFEFE070000FF070000BD
:104BF00002FCFFFF1E040000E2FBFFFF3E0400007A
:104C0000F0B54D4644465F465646F0B40E1C111CA6
:104C10003203520A470F1743C5001A035800DB0F2F
:104C20009946520A4B0F83B01A43CB000193CF4BE6
:104C30007400F60F640DB046400D984200D1E8E0D4
:104C40000123494659400B1C9E4200D1B1E0261A6F
:104C5000002E00DC1CE1002842D1131C01990B43FB
:104C600000D0E6E06B0700D18EE00F232B40042B31
:104C700000D189E02A1DAA42AD4180230126414688
:104C80006D427F191B043B400E40151C002B00D1C8
:104C900083E0B64B01349C4200D116E13A1CB44B80
:104CA000ED081A405007640552020543120B640DCB
:104CB000002112030B0D1B056405120B1A43630838
:104CC000AC4CF60714401C43640064083443281CB1
:104CD000211C03B03CBC90469946A246AB46F0BDB1
:104CE000A24B9C42BED080231B041A43382E00DD09
:104CF00003E11F2E00DD3FE12020831B9946131C9A
:104D000049468B409C46019B6046F3400343019813
:104D1000F2408840011C481E81410B43EB1A9D4222
:104D200080411D1CBA1A4042171A3B0200D4A8E069
:104D30007A02560A002E00D1CAE0301C00F07EFB39
:104D4000031C083B1F2B00DDCBE02822291C121A74
:104D5000D1409E400A1C9D4032439C4200DDC8E089
:104D60001C1B671C1F2F00DDEDE01F23291C1C1BD3
:104D7000131CA540A340F9406C1EA541FA401943FD
:104D80000D43171C00246DE78023012642461B04B7
:104D90003B401640002B00D07BE7744BED087807B2
:104DA0000543FA089C423BD012036405120B640DC4
:104DB0007EE7231A9A46002B00DCA5E0002844D0A9
:104DC0006A48844200D14DE78020000402435346E4
:104DD000382B00DC1CE1019B1A43511E8A41D1B2E1
:104DE00000224919A94280410D1CD21940421718CE
:104DF0003B0246D55D4B01349C4200D169E1012064
:104E00005B4A6B083A4028401843D50705435708CA
:104E100028E7131C01990B4300D111E74B4613E718
:104E20002B1C134351D080231B031A431203120B74
:104E30003EE7013E002E00D080E0691A8D429B4182
:104E4000BA1A5B42D71A0D1C6FE7101C019B18435E
:104E500000D107E701235B429C46E2445346002B06
:104E600000D002E1019BD2195919A9429B415B4232
:104E7000D7180D1CBCE76346034300D128E1071C8B
:104E800065466B0700D0F0E6012643461E4084E7E6
:104E9000002E00D081E0601C4005400D012800DCA0
:104EA00007E10199681A84466545B641B81A764209
:104EB000861B300200D4A1E08C464D1BAC458941D5
:104EC000D21B4942561A984634E700220025EFE6E5
:104ED000281C00F0B3FA2030031C083B1F2B00DC19
:104EE00033E7021C283A95402A1C00259C4200DC2E
:104EF00036E71F4FE41A1740B4E6019B1A43511ED0
:104F00008A41D3B2002209E7002B00D001E1601CE6
:104F100043055B0D012B00DCB0E0144B984200D13F
:104F20001EE1019BD2195919A9429B415B42D2183B
:104F30004908D5070D435708041C93E60B4B9C42C8
:104F400000D0D3E68EE6211C131C1F39CB40191C60
:104F5000202F00D18EE03F231C1BA24015436A1E68
:104F6000954100270D4300248BE7C046FF07000052
:104F7000FFFF7FFFFFFF0F80331C101C203BD8403A
:104F8000202E79D040239B1B9A40131C019A134377
:104F9000591E8B4100220343C0E6002C53D0C74C5E
:104FA000A04200D1B0E08024714289462404274306
:104FB0004946382900DDCDE01F2900DD59E12024D4
:104FC0003E1C611A8E408A46B04649462E1CCE4091
:104FD0005146B4468D4064464646494626436C1EBB
:104FE000A541CF4035430199D71B8C464D1BAC459D
:104FF00092415242BF1A041C984696E663466546A3
:10500000334300D096E60026002700240025C4E69E
:105010001F2B61DC2020C31A9B46131C59468B4072
:1050200051469946019BCB409C464B466046034304
:105030009C465B46019999406346481E814119434D
:105040005346DA40CDE63C1C2C435DD0F143894603
:10505000002955D10199D21B8C464D1BAC45894185
:105060004942571A041C98465FE69448844200D08F
:10507000ADE6F7E5002271E7002387E73B1C2B43F1
:10508000002C00D0DAE0002B00D113E1131C0199B1
:105090000B4300D1E6E54919A9429B41D2195B4275
:1050A000D7183B0200D421E1854B0D1C1F40041C86
:1050B000D8E5381C2843002C40D1002800D083E0DC
:1050C000101C0199084303D0171C0D1C9846C9E514
:1050D00000260027002560E65046131C2038C340F8
:1050E000181C5346202B00D1C1E0402351465B1AC7
:1050F0009A40019911434A1E91410022014370E6F2
:105100006E4CA04200D053E7171C019D041C98462A
:10511000A8E5002C28D13C1C2C4300D18AE0DB43BD
:105120009A46002B00D082E0019BD2199C46654430
:105130009D42894149425718041C59E600285BD119
:10514000101C0199084300D1A4E0171C0D1C9846BF
:105150005A4C87E53D436F1EBD410027EDB242E743
:10516000041C0027002518E6544CA04262D0534688
:1051700080245B429A46240427435346382B00DDA3
:105180008EE01F2B00DD9DE02024E31A9B463B1C94
:1051900059468B40514699462B1CCB409C464B466A
:1051A000644623439C465B469D4063466C1EA54176
:1051B000CF401D43019BBF189C4665449D429241D0
:1051C0005242BF18041C13E6101C0199084300D179
:1051D00048E5681A844685428041BE1A4042301A2A
:1051E000060200D447E68C464D1BAC458941D21BD4
:1051F0004942571A984635E5101C0199084334D0A6
:1052000080247807ED08FF0824032843274208D0AC
:10521000D608264205D1C90852070A43101C371C7C
:105220009846FF00420F1743C500244C1AE5234C53
:10523000A042A2D1171C019D041C13E5002B35D000
:10524000131C01990B4310D080247807ED08FF0848
:10525000240328432742E4D0D3082342E1D1C908DC
:1052600052070A43101C1F1CDBE7144CFAE400220F
:105270003FE74C463E1C203CE6404946341C202972
:1052800032D04026761AB7403D436F1EBD410027FD
:105290002543A8E680270026FF03084C00257CE56F
:1052A0003D436F1EBD410027EDB283E7171C019DF2
:1052B000024CD7E4171C019DD4E4C046FF07000050
:1052C000FFFF7FFF54463B1C203CE3401C1C534621
:1052D000202B0DD0402351465B1A9F403D436F1E4B
:1052E000BD410027254365E70027CDE70D1CC8E534
:1052F0000027F3E70B0330B5134C1A0B4B00051CCA
:105300005B0DC90F0020A34210DD104883420EDC64
:1053100080200F4C40030243E41A1F2C0ADD0D4885
:10532000C31ADA40131C48424340581830BD0A4B98
:10533000C818FBE7281CE040084CA44663449A4088
:10534000131C0343EFE7C046FE0300001D040000EA
:105350003304000013040000FFFFFF7FEDFBFFFF9D
:1053600038B5041E16D0C50F00D04442201C00F0F2
:1053700065F8174B1B1A0A2821DC021C211C153268
:1053800091400A1C0B21081AC4405B052403240B1E
:105390005B0D03E000250023002400220021101CE7
:1053A00024030A0D1205240B14430A4A1B0514405A
:1053B0001C436400ED0764082C43211C38BD0B38E6
:1053C00084405B052403240B5B0D0022E6E7C04606
:1053D0001E040000FFFF0F8010B5041E10D000F067
:1053E0002DF8144A121A0A281ADC0B23211C1B1A46
:1053F000D94015300B03520584401B0B520D01E0C0
:105400000022002300211B03201C1C0B0B0D1B057D
:105410002343094C1205234013435B00590810BD78
:10542000031C0B3B9C40520523031B0B520D002415
:10543000E8E7C0461E040000FFFF0F801C21012387
:105440001B04984201D3000C10391B0A984201D367
:10545000000A08391B09984201D30009043902A245
:10546000105C40187047C0460403020201010101AC
:1054700000000000000000000E4B70B500251E1C4F
:105480000D4CE41AA410A54204D0AB00F358984781
:105490000135F8E700F088F9084B00251E1C084C80
:1054A000E41AA410A54204D0AB00F3589847013584
:1054B000F8E770BDB4570000B4570000B4570000BF
:1054C000B8570000002310B5934203D0CC5CC454FD
:1054D0000133F9E710BD10B5814208D28B1898420C
:1054E00005D29B1A013A09D3995C8154FAE700234B
:1054F000934203D0CC5CC4540133F9E710BD031CC4
:105500000A7801311A700133002AF9D1704700235B
:10551000C25C0133002AFBD1581E704720040000F2
:10552000920600009206000092060000920600001B
:10553000920600009206000092060000920600000B
:1055400092060000920600009206000092060000FB
:10555000920600009206000092060000020400007D
:1055600092060000920600009206000092060000DB
:1055700092060000920600009206000092060000CB
:1055800092060000920600009206000092060000BB
:105590009206000092060000920600001804000027
:1055A000920600009206000092060000920600009B
:1055B000920600009206000092060000920600008B
:1055C000920600009206000092060000920600007B
:1055D00092060000920600009206000010040000EF
:1055E00028040000E4030000F4030000EC030000C2
:1055F0000200000003000000280000002900000055
:105600000400000005000000060000000700000084
:105610002000000021000000220000002300000004
:1056200024000000250000002600000027000000E4
:1056300008000000090000000A0000000B00000044
:1056400000080042000C004200100042001400421A
:1056500000180042001C00420708090A0B0C000059
:105660001E1800001A1800001A1800006818000020
:105670006818000034180000241800003A180000D0
:10568000F4180000D4180000D418000044190000D9
:10569000E618000002190000D818000010190000D8
:1056A000002000420024004200280042002C00425A
:1056B000003000420034004200380042003C00420A
:1056C0001313141415151616000100020004000827
:1056D000001000200040008069000000640000000D
:1056E0006800000070000000450000003045000028
:1056F0003145000053746172746564207570000058
:10570000303000006275737379000000554E4B4FC6
:10571000574E00006F6B00002F0000000D0A0000C4
:105720000D0E0F101112131424400000123F000040
:10573000F83F0000FE3E0000F83F0000024000007D
:10574000F83F0000FE3E0000123F0000123F000044
:1057500002400000FE3E0000083F0000083F00003D
:10576000083F00006A420000B84800009648000068
:10577000964800008A4800007E4700007E470000EF
:105780007E4800008A4800007E4700007E480000F6
:105790007E4700008A4800008247000082470000E0
:1057A00082470000984A0000F8B5C046F8BC08BC23
:1057B0009E467047CD000000F8B5C046F8BC08BC56
:0857C0009E467047A5000000A1
:1057C80008000000401F0000010000004C04000019
:1057D8000102010101001C25010000008000900069
:1057E800A000B000C000D000E00070000F001164FD
:0C57F80020C830644032504065A47000AE
:04000003000021A533
:00000001FF
